:100000000C9464000C94320C0C940B0C0C94590C52
:100010000C94590C0C94590C0C948C000C940D0BF2
:100020000C948C000C948C000C948C000C94D10CCF
:100030000C948C000C948C000C948C000C948C0010
:100040000C94C10B0C948C000C948F0B0C94690BCA
:100050000C948C000C948C000C948C000C948C00F0
:100060000C948C000C948C000000000024002700ED
:100070002A0000000008000201000003040700003D
:1000800000000000000002000000002300260029FC
:100090000000000000250028002B000404040404D4
:1000A0000404040202020202020303030303030125
:1000B00002040810204080010204081020010204FC
:1000C000081020008D0D401311241FBECFEFD8E083
:1000D000DEBFCDBF12E0A0E0B1E0E0E0FDE202C093
:1000E00005900D92AE3CB107D9F724E0AEECB2E03A
:1000F00001C01D92AD3BB207E1F710E0C3E6D0E0CE
:1001000004C02197FE010E947214C236D107C9F7BC
:100110000E94EB0E0C9473160C940000CF92DF92A9
:10012000EF92FF92DC01A03282E0B807D4F5A53B44
:10013000B10514F0A4EBB0E04091120428E830E0DF
:10014000241B310947FD3395220F331F220F331F24
:100150006901330FEE08FF084091130428E532E0EF
:10016000241B310947FD3395220F331F220F331F04
:10017000032E000C440B550B2C193D094E095F0949
:10018000B7FF02C0B0E0A0E00E94CE1324EB30E045
:1001900040E050E00E94A413C20ED31EE41EF51EE0
:1001A000D601E0911104EC3080F52091120488E82A
:1001B00090E0821B910927FD9395880F991F880F66
:1001C000991FA817B90784F02091130488E592E0DD
:1001D000821B910927FD9395880F991F880F991FFE
:1001E000A817B9070CF4CD010297880F991F4FB7D4
:1001F000F8942E2F30E0F901EE0FFF1FE20FF31FEE
:10020000E353FC4F928381834FBFFF90EF90DF90C9
:10021000CF90089596E0899FD0011124A45DBB4F33
:1002200090967C936E935F9791E091969C939197B3
:10023000E0919904F0919A0490919804992339F0EF
:10024000309751F0811108C080914804099430978B
:1002500019F05C968C91FACF0895CF92DF92EF92CD
:10026000FF920F931F9396E0899FF0011124E45DA4
:10027000FB4F11A2278D30A12130310551F178F0CB
:100280002230310509F451C02330310509F452C040
:100290001F910F91FF90EF90DF90CF90089566230C
:1002A000B9F361E070E00E940A012FB7F8948091E1
:1002B0002C0390912D03A0912E03B0912F032FBFFB
:1002C0008093840490938504A0938604B09387045C
:1002D000DFCF9FB7F894C0902C03D0902D03E0900F
:1002E0002E03F0902F039FBF00918404109185048A
:1002F0002091860430918704C01AD10AE20AF30AD9
:10030000009196041091970430E020E00C151D0533
:100310002E053F0550F462E070E01F910F91FF90B1
:10032000EF90DF90CF900C940A016111B1CF63E0A0
:1003300070E0F3CF70E060E0F0CF0895AF92BF922D
:10034000CF92DF92EF92FF920F931F93CF93DF93A1
:100350006C017B018B01040F151FEB015E01AE18D0
:10036000BF08C017D10759F06991D601ED91FC91F2
:100370000190F081E02DC6010995892B79F7C5011F
:10038000DF91CF911F910F91FF90EF90DF90CF9071
:10039000BF90AF900895FC01538D448D252F30E020
:1003A000842F90E0821B930B541710F0CF96089582
:1003B00001970895FC01918D828D981761F0A28DAF
:1003C000AE0FBF2FB11D5D968C91928D9F5F9F7375
:1003D000928F90E008958FEF9FEF0895FC01918D2B
:1003E000828D981731F0828DE80FF11D858D90E098
:1003F00008958FEF9FEF0895FC01918D228D892F35
:1004000090E0805C9F4F821B91098F73992708951C
:1004100080E393E00E94FC0121E0892B09F420E0B5
:10042000822F089580E090E0892B29F00E94080235
:1004300081110C9400000895FC01A48DA80FB92F20
:10044000B11DA35ABF4F2C91848D90E001968F73FC
:100450009927848FA689B7892C93A089B1898C911B
:10046000837080648C93938D848D981306C002886A
:10047000F389E02D80818F7D80830895EF92FF9234
:100480000F931F93CF93DF93EC0181E0888F9B8DB7
:100490008C8D98131AC0E889F989808185FF15C071
:1004A0009FB7F894EE89FF896083E889F989808194
:1004B0008370806480839FBF81E090E0DF91CF9163
:1004C0001F910F91FF90EF900895F62E0B8D10E085
:1004D0000F5F1F4F0F731127E02E8C8D8E110CC0F4
:1004E0000FB607FCFACFE889F989808185FFF5CF3F
:1004F000CE010E941C02F1CFEB8DEC0FFD2FF11D00
:10050000E35AFF4FF0829FB7F8940B8FEA89FB897B
:1005100080818062CFCFCF93DF93EC01888D8823D9
:10052000B9F0AA89BB89E889F9898C9185FD03C056
:10053000808186FD0DC00FB607FCF7CF8C9185FF3B
:10054000F2CF808185FFEDCFCE010E941C02E9CF62
:10055000DF91CF910895833081F028F4813099F0B4
:100560008230A9F008958730A9F08830C9F084302E
:10057000B1F4809180008F7D03C0809180008F77DF
:1005800080938000089584B58F7784BD089584B5E5
:100590008F7DFBCF8091B0008F778093B00008955E
:1005A0008091B0008F7DF9CFCF93DF93282F30E07B
:1005B000F901EE58FF4F8491F901E155FF4FD491B5
:1005C000F901E556FF4FC491CC23A1F081110E949F
:1005D000AB02EC2FF0E0EE0FFF1FE957FF4FA591A4
:1005E000B491EC91ED2381E090E009F480E0DF919B
:1005F000CF91089580E090E0FACF862F0C94D4023A
:100600001F93CF93DF93282F30E0F901EE58FF4F6F
:100610008491F901E155FF4FD491F901E556FF4F5F
:10062000C491CC23A9F0162F81110E94AB02EC2FAC
:10063000F0E0EE0FFF1FEF56FF4FA591B4918FB77B
:10064000F894EC91111108C0D095DE23DC938FBF94
:10065000DF91CF911F910895DE2BF8CF862F642F65
:100660000C9400039091040189130BC0E6E8F0E0BC
:10067000E4919FEF90930401E13049F028F0E230DB
:1006800061F060E00C94000310926E00FACF90913C
:100690006F009D7F90936F00F4CF909170009D7FCD
:1006A0009093700091E09093B0009091B100987F8A
:1006B00094609093B1001092B300E3CFCF93DF9397
:1006C00090E0FC01E155FF4F249185569F4FFC01BE
:1006D00084918823C9F090E0880F991FFC01E859A4
:1006E000FF4FA591B491FC01EF56FF4FC591D491F6
:1006F00061110DC09FB7F8948C91209582238C9343
:100700008881282328839FBFDF91CF91089562308D
:1007100051F49FB7F8943C91822F809583238C935A
:10072000E8812E2BEFCF8FB7F894EC912E2B2C93E2
:100730008FBFEACF862F642F0C945E036F927F9257
:100740008F929F92AF92BF92CF92DF92EF92FF92E1
:100750000F931F93CF93DF9381E0809398048FB71B
:10076000F89440912C0350912D0360912E037091C9
:100770002F038FBF8091880490918904A0918A04EF
:10078000B0918B04481B590B6A0B7B0B809194042E
:1007900090919504B0E0A0E084179507A607B707ED
:1007A00008F01DC1C0E080919204C81760F4E09188
:1007B0008E04F0918F04EC0FF11D62E080810E94A5
:1007C0005E03CF5FF0CF712C812C912C5401839468
:1007D00080919304781608F05FC0072D10E0E09137
:1007E0009004F0919104E00FF11F61E080810E947C
:1007F0005E03E0919004F0919104E00FF11F60E03E
:1008000080810E940003D501C401072C04C0880F19
:10081000991FAA1FBB1F0A94D2F76C017C01E094B8
:10082000F094612C809192046816F8F4C62DD0E003
:10083000E0918E04F0918F04EC0FFD1F80810E94E7
:10084000D4022496CC0FDD1FC45DDB4F892B41F40D
:10085000888199818C299D29998388836394E2CF2B
:10086000888199818E219F21F7CFE0919004F091AA
:100870009104E00FF11F61E080810E9400038091EC
:10088000900490919104080F191F60E0F801808195
:100890000E945E0373949CCFCCE2D4E0FE018FEF04
:1008A0009FEF278D30A1232B21F4148E968F858FF7
:1008B00011A2369624E0E836F20799F7F12C96E07B
:1008C000D92E80919204F81608F050C0E12C0F2D1B
:1008D00010E0000F111F0C5C1B4F20919304E216D7
:1008E00008F042C0F801608171810E2C02C076953B
:1008F00067950A94E2F7F29E900111242E0D311DA6
:10090000ECE2F4E080E0458D568D2417350709F4BC
:100910006AC08F5F36968A30B1F760FF23C0ECE281
:10092000F4E090E080E0448D411117C0E0918C0428
:10093000F0918D04E20FF31F4081D89EF001D99E03
:10094000F00D1124E45DFB4F448F368F258F10A2EC
:10095000178E61E00E942D0105C0019636968A30FF
:10096000910509F7E394B9CFF394ABCF80E099A157
:100970009111892F2696F4E0C836DF07C1F79FB79B
:10098000F89440912C0350912D0360912E037091A7
:100990002F039FBF409388045093890460938A0477
:1009A00070938B048823D9F080914D048823B9F08B
:1009B00080914B0490914C04019789F480914804F4
:1009C000DF91CF911F910F91FF90EF90DF90CF902B
:1009D000BF90AF909F908F907F906F9008951092EE
:1009E000980480E0EDCF6170B5CFCF92DF92EF92A7
:1009F000FF92CF936C0180910401833049F08F3FC7
:100A000009F466C0CF91FF90EF90DF90CF900895EA
:100A1000E6E8F0E0C491C7FDF5CF61E083E00E9415
:100A20005E03F12CE12CCC23D1F0960150E040E0A4
:100A3000C23009F0BCC07A0160E970ED83E090E05B
:100A40000E94A413BA01A901415051096109710919
:100A500083E04F3F51056105710559F154F168E498
:100A600078EE81E090E0A70196010E94A413BA01FC
:100A7000A9014150510961097109CC2309F4D4C07D
:100A8000C23009F00EC14F3F51056105710509F0F3
:100A90000CF40EC164E274EF80E090E0A7019601CF
:100AA0000E94A413BA01A9014150510961097109B9
:100AB00085E09091B100987F892B8093B100C1307F
:100AC00009F48AC0C23009F49CC0C1119BCFC6C0D2
:100AD00083E080930401E6E8F0E0C491CF3F09F49D
:100AE00091CFC13021F150F0C23009F43EC0C7FDB2
:100AF00089CF61E083E00E945E0397CF14BC15BCF0
:100B000084B5826084BD85B5816085BDEEE9F0E085
:100B1000E491F0E0EE0FFF1FEF56FF4F85919491A7
:100B2000E2EBF0E0E491E0931F03C0E076CF109297
:100B30008000109281008091810088608093810004
:100B400080918100816080938100EEE9F0E0E49182
:100B5000F0E0EE0FFF1FEF56FF4F85919491E2EB0F
:100B6000F0E0E491E0931E0358CF1092B000109291
:100B7000B1008091B00082608093B0008091B1009C
:100B800081608093B100EEE9F0E0E491F0E0EE0FD7
:100B9000FF1FEF56FF4F8591949190931D03809313
:100BA0001C03E2EBF0E0E491E0931B0336CF60E03E
:100BB00072E18AE790E00E94A413BA01A9014150B2
:100BC000510961097109C13009F079CF8091810023
:100BD000887F8160809381005093890040938800D2
:100BE0008FEF9FEFDC018093240390932503A09364
:100BF0002603B093270380916F00826080936F007B
:100C000001CF4093B3008FEF9FEFDC01809320036F
:100C100090932103A0932203B0932303809170004B
:100C2000826080937000EECE93E04F3F51056105E6
:100C3000710581F07CF062E17AE780E090E0A70145
:100C400096010E94A413BA01A901415051096109FA
:100C5000710994E085B5887F892B85BD47BD8FEFED
:100C60009FEFDC018093280390932903A0932A032C
:100C7000B0932B0380916E00826080936E00C2CE91
:100C800062E17AE780E090E0A70196010E94A41358
:100C9000BA01A9014150510961097109C1E086E019
:100CA00008CF4F3F51056105710509F04CF7C1E0D0
:100CB00084E0FFCE3FB7F894809110039091110328
:100CC000A0911203B091130326B5A89B05C02F3F36
:100CD00019F00196A11DB11D3FBFBA2FA92F982F62
:100CE0008827BC01CD01620F711D811D911D42E05D
:100CF000660F771F881F991F4A95D1F708958F9225
:100D00009F92AF92BF92CF92DF92EF92FF924B01F0
:100D10005C010E945A066B017C010E945A066C1904
:100D20007D098E099F09683E734081059105A8F3EE
:100D300021E0821A9108A108B10888EEC80E83E06C
:100D4000D81EE11CF11C81149104A104B10429F7FF
:100D5000FF90EF90DF90CF90BF90AF909F908F90DB
:100D60000895089520911603309117032817390725
:100D700071F49091140380911503981741F0E0915C
:100D80001403F0E0E153FD4F808190E008958FEF70
:100D90009FEF08950895EF92FF920F931F93CF93C3
:100DA000DF93DC015C96ED90FC905D97E114F1041B
:100DB00079F481E090E013969C938E93129790E0E3
:100DC00080E0DF91CF911F910F91FF90EF900895F8
:100DD0005196ED91FC91529750968C915097982F87
:100DE00090950FB75E962C915E97122F127021FD91
:100DF0006095F8942081112319F1282B2083E701B5
:100E00002197F1F728E0462F50E0308160FF1AC0AB
:100E1000382B3083E7012197F1F7BA017595679573
:100E2000215089F7112381F08081892380830FBFAE
:100E30005C968D919C910197F1F781E090E0C1CF94
:100E40002923DCCF3923E5CF9081892BEFCF209167
:100E50001603309117032817390771F48091150391
:100E60002091140390E0805C9F4F821B910960E405
:100E700070E00E944A14089590E080E00895209167
:100E800016033091170328173907B9F4909114030A
:100E900080911503981789F0E0911403F0E0E15375
:100EA000FD4F80812091140330E02F5F3F4F2F735F
:100EB00033272093140390E008958FEF9FEF089558
:100EC00090E080E00895CF93DF9310921903109281
:100ED0001803C0911803D0911903C53BD1057CF4C8
:100EE000CE010E948E0062E370E080E090E00E94FC
:100EF0007F062596D0931903C0931803EACFDF919C
:100F0000CF9108950E94630781E080931A030895AA
:100F1000CF93DF93EC0160E08E810E94000361E0DB
:100F20008E810E94000360E08E810E9400038BE8A6
:100F300091E00197F1F7DF91CF910895CF92DF9281
:100F4000EF92FF920F931F93CF93DF936C017C017D
:100F500087E0E80EF11CD0E0C0E0062F10E0B801F9
:100F60000C2E02C0759567950A94E2F76170F7013F
:100F700081917F010E9400032196C430D10579F749
:100F8000C601DF91CF911F910F91FF90EF90DF90FD
:100F9000CF900C948807CF92DF92EF92FF920F933D
:100FA0001F93CF93DF93EC01F62E642F8C810E9468
:100FB00000038D818F3F19F060E00E9400030F2D28
:100FC00010E08F8584FF25C06E0187E0C80ED11C1C
:100FD000F12CE12CB8010E2C02C0759567950A948E
:100FE000E2F76170F60181916F010E940003FFEF4B
:100FF000EF1AFF0A88E0E816F10461F7CE01DF91ED
:10100000CF911F910F91FF90EF90DF90CF900C94B4
:101010008807B80184E0759567958A95E1F7CE0158
:101020000E949E076F2DCE01DF91CF911F910F91EE
:10103000FF90EF90DF90CF900C949E0740E0682FD8
:1010400084E194E00C94CB0781E00E941E088BE3BE
:101050009FE10197F1F70895CF93DF93823029F450
:101060009091230498609093230480932704109216
:10107000280480E48093290480E180932A0480E599
:1010800080932B0461E0809118040E945E0380919C
:1010900019048F3F19F061E00E945E0361E08091C6
:1010A0001A040E945E03C4E1D4E09E01245134403E
:1010B0008091230484FD0BC084E090E021962817E2
:1010C000390744F461E08E810E945E03EECF88E030
:1010D00090E0F4CF8BE39DE00197F1F760E0809121
:1010E00018040E94000360E080911A040E9400032B
:1010F000809119048F3F19F060E00E9400038091F5
:10110000230484FD34C063E084E194E00E949E07E0
:10111000CBE4D6E4CE010197F1F763E084E194E0FB
:101120000E949E072197F1F763E084E194E00E941A
:101130009E0783E592E00197F1F762E084E194E095
:101140000E949E078091230480620E941E0884E012
:10115000809324048CE00E941E080E94240882E0F0
:101160008093250486E0DF91CF910C941E08806265
:101170000E941E088BE496E40197F1F78091230406
:1011800080620E941E0883E592E00197F1F780914A
:10119000230480620E941E08D5CF9091270469170E
:1011A00010F06FEF690FE62FF0E0EC5EFB4F9489D3
:1011B000890F80680C941E0841E00E94CB0781E0F3
:1011C00090E00895FB0101900020E9F73197AF010D
:1011D000461B570BDC01ED91FC910280F381E02D61
:1011E00009940C94E20868E571E080E393E00E94C2
:1011F000E20867E671E080E393E00E94E2086AE6B5
:1012000071E082EF93E00E94F10864E670E080E014
:1012100090E00E947F0665E771E082EF93E00E9414
:10122000F10864EF71E080E090E00E947F066DE8D5
:1012300071E082EF93E00E94F10864EF71E080E0DA
:1012400090E00E947F066AE182EF93E00E94CB0665
:1012500064EF71E080E090E00E947F0667E671E055
:1012600082EF93E00E94E2086BEB71E080E393E091
:101270000E94E20867E671E080E393E00E94E208E2
:1012800064EF71E080E090E00C947F06FC01248123
:101290003581FB014481558124173507E1F4FC01B8
:1012A00080819181FB01608171810097D1F061158E
:1012B0007105A1F4232BC1F0FC01808190E008C0EE
:1012C000232B91F0FB01808190E09195819591090C
:1012D00021E0892B09F020E0822F08950E946316F7
:1012E000F7CF6115710561F721E0F6CFCF93DF935A
:1012F000EC0188819981009711F00E9414151982E0
:1013000018821D821C821B821A82DF91CF91089560
:10131000FC0180819181009711F00C9414150895BF
:101320000F931F93CF93DF938C01EB01FC0180811E
:1013300091810097E1F06881798161157105A9F0CB
:10134000428153812C813D814217530770F00E94E6
:101350006C168C819D81F801958384831D821C828B
:10136000DF91CF911F910F9108950E9414158881EC
:101370009981F801918380838A819B819383828301
:101380008C819D8195838483198218821B821A82A5
:10139000E5CF0F931F93CF93DF93EC018881998161
:1013A000009759F02A813B812617370730F081E0FA
:1013B000DF91CF911F910F9108958B016F5F7F4F48
:1013C0000E949D15009759F0998388831B830A8397
:1013D0002C813D81232B59F7FC011082E8CF80E05E
:1013E000E7CFEF92FF920F931F93CF93DF93611597
:1013F000710541F480E0DF91CF911F910F91FF9033
:10140000EF90089541155105B1F07B01EC010C817D
:101410001D81040F151FB8010E94C909882351F3CB
:10142000288139818C819D81B701820F931F0E9491
:101430006C161D830C8381E0DECFEF92FF920F9339
:101440001F93CF93DF93EC017B018A01BA010E94C5
:10145000C90981110BC0CE010E947609CE01DF912E
:10146000CF911F910F91FF90EF9008951D830C83F2
:10147000B701888199810E946C16F0CFFC0111821E
:1014800010821382128215821482FB0101900020C7
:10149000E9F73197AF01461B570B0C941D0AEF92E9
:1014A000FF920F931F93CF93DF93CDB7DEB7A4972F
:1014B0000FB6F894DEBF0FBECDBF68EE73E080E0DC
:1014C00090E00E947F068EE1E82EF12C8E010F5FE6
:1014D0001F4F80911A03811188C00E94240860E088
:1014E00080E00E94CD0866EC71E0CE014F960E942C
:1014F0003E0A1A8E198E1C8E1B8E1E8E1D8E4AE081
:10150000B801C7010E946F13F80101900020E9F7AC
:101510003197AF01401B510BB801CE0149960E9493
:101520001D0A6EEC71E0C8010E943E0A1C8A1B8AEB
:101530001E8A1D8A188E1F8A69817A81611571053C
:1015400031F04D815E81CE0143960E941D0A4D8D82
:101550005E8D698D7A8DCE0143960E94F1098111CD
:1015600004C0CE0143960E9476094BA15CA16F8D09
:1015700078A1CE0143960E94F109811104C0CE01E9
:1015800043960E9476094F89588D6B897C8984E146
:1015900094E00E949E01CE0143960E948809C801F2
:1015A0000E948809CE0149960E948809CE014F9673
:1015B0000E94880964EF71E080E090E00E947F065D
:1015C00061E085E00E94000382EC91E00E94F50456
:1015D00064EF71E080E090E00E947F0660E085E0CB
:1015E0000E94000383E00E94320381E0E81AF108C0
:1015F00009F06FCF0E94240860E080E00E94CD08CF
:10160000A4960FB6F894DEBF0FBECDBFDF91CF9189
:101610001F910F91FF90EF9008951F920F920FB6B8
:101620000F9211242F933F934F935F936F937F9368
:101630008F939F93AF93BF93EF93FF93809120037A
:1016400090912103A0912203B0912303892B8A2B2F
:101650008B2BD1F190911B03E0911C03F0911D03A2
:101660008081892780838091200390912103A0911C
:101670002203B0912303181619061A061B069CF4C0
:101680008091200390912103A0912203B091230324
:101690000197A109B1098093200390932103A0939E
:1016A0002203B0932303FF91EF91BF91AF919F91DC
:1016B0008F917F916F915F914F913F912F910F90FB
:1016C0000FBE0F901F901895809104010E94320365
:1016D000EACF1F920F920FB60F9211242F933F93D0
:1016E0004F935F936F937F938F939F93AF93BF932A
:1016F000EF93FF9380E393E00E941C02FF91EF9130
:10170000BF91AF919F918F917F916F915F914F9119
:101710003F912F910F900FBE0F901F9018951F9221
:101720000F920FB60F9211242F938F939F93EF93E5
:10173000FF93E0914003F09141038081E0914603E3
:10174000F091470382FD1BC09081809149038F5F18
:101750008F7320914A03821741F0E0914903F0E032
:10176000E05DFC4F958F80934903FF91EF919F912E
:101770008F912F910F900FBE0F901F901895808121
:10178000F4CF1F920F920FB60F9211242F933F9315
:101790008F939F93AF93BF9380912C0390912D03D0
:1017A000A0912E03B0912F0330910F0323E0230F5C
:1017B0002D3758F50196A11DB11D20930F0380937D
:1017C0002C0390932D03A0932E03B0932F038091AD
:1017D000100390911103A0911203B091130301968D
:1017E000A11DB11D8093100390931103A0931203C8
:1017F000B0931303BF91AF919F918F913F912F9120
:101800000F900FBE0F901F90189526E8230F029699
:10181000A11DB11DD2CF1F920F920FB60F921124AE
:101820002F933F934F935F936F937F938F939F93E8
:10183000AF93BF93EF93FF93E0910201F091030107
:101840000995FF91EF91BF91AF919F918F917F91FA
:101850006F915F914F913F912F910F900FBE0F901D
:101860001F9018951F920F920FB60F9211242F936D
:101870003F934F935F936F937F938F939F93AF9318
:10188000BF93EF93FF93E0910001F091010109955F
:10189000FF91EF91BF91AF919F918F917F916F9148
:1018A0005F914F913F912F910F900FBE0F901F901E
:1018B00018951F920F920FB60F9211242F933F93FA
:1018C0004F935F936F937F938F939F93AF93BF9348
:1018D000EF93FF93E0911603F0911703309749F0CF
:1018E000A685B7858585968D91FF14C09C91892327
:1018F000A1F4FF91EF91BF91AF919F918F917F9153
:101900006F915F914F913F912F910F900FBE0F906C
:101910001F9018959C91892361F7A389B4899C91A4
:101920008589809589238C93868997890197F1F71A
:10193000608D718DA685B785558538E020E0CB0197
:101940000197F1F7822F90E095958795282F4C917C
:10195000452309F02068315091F7868D81FD20954F
:101960008091150390E001968F73992730911403AD
:10197000381799F0A0911503B0E0A153BD4F2C93F7
:1019800080931503828D938D0197F1F7A389B48914
:101990008C919589892B8C93ACCF868D8160868FB5
:1019A000F1CF1F920F920FB60F9211242F933F93F6
:1019B0004F935F936F937F938F939F93AF93BF9357
:1019C000CF93DF93EF93FF938091CE02C091F10309
:1019D000D0E087FF24C0109285001092840080918F
:1019E000CE028F5F8093CE028091CE02082E000C33
:1019F000990B8C179D0724F48091CE028C30C4F192
:101A00008091840090918500049680349C4908F46C
:101A10007AC08091840090918500049676C0809170
:101A2000CE02082E000C990B8C179D07C4F6E0918E
:101A3000CE028E2FEE0F990BFC01EE0FFF1FE80F69
:101A4000F91FE353FC4F808186FFC9CFE091CE029E
:101A50008E2FEE0F990BFC01EE0FFF1FE80FF91F01
:101A6000E353FC4F808160E08F730E940003B7CF87
:101A70002091840030918500E091CE028E2FEE0FF0
:101A8000990BFC01EE0FFF1FE80FF91FE353FC4F0A
:101A900081819281820F931F9093890080938800A7
:101AA000E091CE028E2FEE0F990BFC01EE0FFF1F7F
:101AB000E80FF91FE353FC4F808186FF11C0E091CE
:101AC000CE028E2FEE0F990BFC01EE0FFF1FE80FD9
:101AD000F91FE353FC4F808161E08F730E94000384
:101AE000FF91EF91DF91CF91BF91AF919F918F9136
:101AF0007F916F915F914F913F912F910F900FBE0A
:101B00000F901F90189580E49CE990938900809332
:101B100088008FEF8093CE02E3CFCF9310923303F0
:101B20001092320388EE93E0A0E0B0E0809334039B
:101B300090933503A0933603B093370382E291E08C
:101B4000909331038093300385EC90E090933D03B4
:101B500080933C0384EC90E090933F0380933E039A
:101B600080EC90E0909341038093400381EC90E0FF
:101B7000909343038093420382EC90E0909345035B
:101B80008093440386EC90E0909347038093460350
:101B90001092490310924A0310924B0310924C0387
:101BA0006CED71E083EB94E00E943E0A61EE71E01F
:101BB0008DEA94E00E943E0A66EE71E087EA94E0C6
:101BC0000E943E0A69E671E081EA94E00E943E0AC2
:101BD00069E671E08BE994E00E943E0A10922E04BF
:101BE00010923204109231041092330482E591E095
:101BF00090932D0480932C04E8E4F4E01082148286
:101C000013821582369684E0E438F807B9F788E045
:101C100091E090938F0480938E0485E091E09093FF
:101C200091048093900484E08093920483E08093F5
:101C300093048CE091E090938D0480938C048AE06F
:101C400090E0909395048093940484EF91E09093B6
:101C500097048093960410929A041092990410921B
:101C600088041092890410928A0410928B041092B6
:101C70009804109217041092160486E491E0909351
:101C800015048093140483E180931804CFEFC0936C
:101C9000190482E180931A0481E180931B0480E19E
:101CA00080931C048FE080931D048EE080931E04BB
:101CB00010921F041092200410922104109222040A
:101CC0001092230481E00E942C088091F1038C3053
:101CD00008F07EC091E0980F9093F1038093110477
:101CE00090E0FC01EE0FFF1FE80FF91FE353FC4FDC
:101CF00088EB9BE0928381831092F5031092F403AA
:101D000088EE93E0A0E0B0E08093F6039093F703B1
:101D1000A093F803B093F90384E391E09093F30365
:101D20008093F203109209041092080410920B049D
:101D300010920A0410920D0410920C0410920F04D9
:101D400010920E04609110046E7F6D7F60931004FA
:101D50006695617081E068270E94000361E081E080
:101D60000E945E03E0EBF0E0E491E0930204ECE912
:101D7000F0E0E491F0E0EE0FFF1FEF56FF4F85918A
:101D80009491909304048093030460E080E00E94A7
:101D90005E038091100481FD04C061E080E00E9438
:101DA00000031092FE03EFEAF0E0E491E093FF03FA
:101DB000EBE9F0E0E491F0E0EE0FFF1FE957FF4F91
:101DC000859194919093010480930004CF9108959C
:101DD000C093110491CFCF93DF93CDB7DEB76E9749
:101DE0000FB6F894DEBF0FBECDBF789484B5826085
:101DF00084BD84B5816084BD85B5826085BD85B5AF
:101E0000816085BD80916E00816080936E0010922C
:101E100081008091810082608093810080918100A7
:101E20008160809381008091800081608093800038
:101E30008091B10084608093B1008091B000816096
:101E40008093B00080917A00846080937A008091C2
:101E50007A00826080937A0080917A00816080931A
:101E60007A0080917A00806880937A001092C10095
:101E700082E00E942C08809111048C3008F051C03F
:101E800061E086E00E945E0380911104282F30E01B
:101E9000F901EE0FFF1FE20FF31FE353FC4F908198
:101EA000907C9660908310921204109213042CE0A0
:101EB000622F0E943E14829FB001112430E020E086
:101EC000AB01420F531FFA01EE0FFF1FE40FF51F86
:101ED000E353FC4F908196FD16C02F5F3F4F2C308F
:101EE000310571F781110FC01092800082E080935C
:101EF00081001092850010928400B19A80916F0049
:101F0000826080936F00E09111048E2F90E0FC01BD
:101F1000EE0FFF1FE80FF91FE353FC4F8081806431
:101F2000808380911803909119030E948E00109273
:101F30000D0410920C0410920B0410920A041092DB
:101F40000904109208048DE991E090930F048093A6
:101F50000E049091FE03963108F047C02DEB30E05F
:101F600030930904209308042BE931E030930B04EB
:101F700020930A042CE231E030930D0420930C04EA
:101F80002091680084E0983048F031E09E3008F4F9
:101F900030E081E001C0880F3A95EAF7822B809308
:101FA00068002DE630E0983050F02BE630E09E30AF
:101FB00030F02CE630E0963110F030E020E0309345
:101FC000060420930504292F30E0983008F0C9C09A
:101FD00081E001C0880F9A95EAF780930704809109
:101FE0000E0490910F040197F1F780910C049091E9
:101FF0000D04892B49F1E0911603F091170383E05A
:10200000E23FF80709F1309739F0A389B4899C9130
:102010008589809589238C93809110048E7F80938D
:102020001004109215031092140382EF93E0909322
:10203000170380931603E0910504F0910604808154
:1020400090910704892B8083E0914003F091410334
:1020500082E08083E0913C03F0913D031082E091A7
:102060003E03F0913F038FEC808310924803E09190
:102070004403F091450386E08083E0914203F091B0
:102080004303808180618083E0914203F0914303A8
:10209000808188608083E0914203F09143038081D6
:1020A00080688083E0914203F091430380818F7DBB
:1020B000808361E085E00E945E0361E084E00E942D
:1020C0005E0361E083E00E945E0360E082E00E94C4
:1020D0005E0382E897E09093010180930001809174
:1020E00069008C7F816080936900E89A80911A036F
:1020F000882301F10E94240810921A0360E081E015
:102100000E94CD086BEE71E084E194E00E94F1083A
:1021100061E081E00E94CD086AEF71E084E194E023
:102120000E94F10860ED77E080E090E00E947F0679
:102130000E94240860E084E00E94CD0868E072E01C
:1021400084E194E00E94F10861E080E00E94CD0803
:1021500061E172E084E194E00E94F10810E000E0A7
:1021600013C09E3040F42850310981E001C0880F2F
:102170002A95EAF732CF2E503109F7CF0F5F1F4F64
:102180000430110509F41EC280911A0381111AC28C
:10219000C8010197029708F05AC00E94240860E025
:1021A00080E00E94CD0861E272E084E194E00E9448
:1021B000F10861E085E00E94000364EF71E080E0D7
:1021C00090E00E947F0660E085E00E94000361E0ED
:1021D00080E00E94CD0860E372E084E194E00E9418
:1021E000F10869E671E0CE0107960E943E0A69E6B1
:1021F00071E0CE0101960E943E0A8B859C85049772
:1022000008F05FC080911A0381115BC00E949E0399
:10221000F82E882391F38D871E8641E050E0BE01A1
:10222000635F7F4FCE0107960E94F1098B859C85E5
:10223000019731F40E94240860E080E00E94CD08FC
:1022400041E06F2D84E194E00E94CB07D6CF0330AC
:10225000110539F663EB74E081EA94E00E944609C7
:10226000811147C06DEA74E081EA94E00E9446095A
:1022700081113FC067EA74E081EA94E00E94460958
:10228000811137C00330110509F4D7C10F5F1F4F0B
:102290000E94240850E040E069E671E081EA94E0A1
:1022A0000E941D0A6DCF61E080E00E94CD0860E4CD
:1022B00072E084E194E00E94F1080E949E038A3259
:1022C00041F08B859C85049721F480911A03882323
:1022D00051F3CE0101960E948809BE01695F7F4FCC
:1022E00081EA94E00E949009CE0107960E94880935
:1022F000B1CF93E0C92ED12C80911A0381118DC1E9
:102300000E94240860E080E00E94CD0863E572E04E
:1023100084E194E00E94F10869E671E0CE01019643
:102320000E943E0A8D819E81069710F580911A03C6
:1023300081111EC00E949E038823A1F38F831886FB
:1023400041E050E0BE01695F7F4FCE0101960E94DF
:10235000F1098D819E81019721F461E080E00E9466
:10236000CD0863E672E084E194E00E94F108DACFE0
:1023700064EF71E080E090E00E947F060E942408F4
:1023800060E080E00E94CD0860E472E084E194E0C7
:102390000E94F1088D819E81069709F46AC0BE01F2
:1023A0006F5F7F4F8BE994E00E949009CE01019608
:1023B0000E9488091C8A1B8A1E8A1D8A188E1F8A01
:1023C00060919B0470919C046115710509F05BC0DC
:1023D0001A8E198E1C8E1B8E1E8E1D8E6091A1046E
:1023E0007091A2046115710541F04091A5045091CE
:1023F000A604CE0149960E941D0A65E672E0CE0150
:102400000D960E943E0A6CE672E0CE0107960E948D
:102410003E0A63E772E0CE0101960E943E0A8D8D6E
:102420009E8D892B19F1A98CBA8C6CED71E0C501D8
:102430000E9463167C01BE01635F7F4F892B61F1AF
:1024400061EE71E0C5010E9463167C01BE01695F07
:102450007F4F892B09F166EE71E0C5010E9463167A
:102460007C01BE016F5F7F4F892BB1F0F12CE12C15
:1024700022C080911A03811192CF0E949E038A325A
:1024800009F088CF8CCF40919F045091A004CE01D9
:1024900043960E941D0A9CCFCE0143960E94460996
:1024A000882349F00E94240860E080E00E94CD0863
:1024B000EE24E394F12CCE0101960E948809CE010E
:1024C00007960E948809CE010D960E948809CE01C8
:1024D00049960E948809CE0143960E948809EA9491
:1024E000EF2809F07CC06AE772E084E194E00E9482
:1024F000F10888EE93E00E94F50468EE73E080E056
:1025000090E00E947F0683E00E94320368EE73E051
:1025100080E090E00E947F060E94240860E080E056
:102520000E94CD086CE872E084E194E00E94F1081A
:1025300061E084E00E94000364EF71E080E090E0DD
:102540000E947F0660E084E00E9400030E9463070F
:1025500060ED77E080E090E00E947F0684EB90E001
:102560009093190380931803009118031091190395
:1025700017FD10C0C8010E948E0062E370E080E089
:1025800090E00E947F0605501109109319030093F3
:102590001803EACF0E94240860E080E00E94CD0882
:1025A0006CE972E084E194E00E94F10868EB7BE062
:1025B00080E090E00E947F060E94240860E080E0B6
:1025C0000E94CD0880E090E0892B09F48FCD0E9415
:1025D0000802882309F48ACD0E94000087CD8091EB
:1025E0001A0381111AC00E94240860E080E00E9452
:1025F000CD086AEA72E084E194E00E94F10861E0AB
:1026000085E00E94000364EF71E080E090E00E94AA
:102610007F0660E085E00E94000381E0C81AD108CF
:1026200009F06ACE80911A038111A8CD0E94F308A7
:102630000E944F0A62E172E08DCD80911A038111F0
:1026400025CE0E94240860E080E00E94CD086FEB58
:1026500072E084E194E00E94F10861E085E00E946C
:10266000000364EF71E080E090E00E947F0660E08C
:1026700085E00E9400030E94F3080E944F0AA2CF47
:1026800084E391E09093F3038093F2038091160327
:1026900090911703825F934071F4E0910504F091EB
:1026A000060490818091070480958923808310928D
:1026B0001703109216038BE994E00E94880981EABF
:1026C00094E00E94880987EA94E00E9488098DEAD4
:1026D00094E00E94880983EB94E00C948809BB275E
:1026E0004A3031F4992322F4BDE2909581959F4FB1
:1026F0000C947B13BB27FB015527AA27880F991F32
:10270000AA1FA41710F0A41B83955051B9F7A05D20
:10271000AA3308F0A95DA193009779F7B111B1939D
:102720001192CB010C949413DC01FC01672F719181
:102730007723E1F7329704C07C916D9370836291A7
:10274000AE17BF07C8F30895052E97FB1EF400943B
:102750000E94BB1357FD07D00E940D1407FC03D045
:102760004EF40C94BB1350954095309521953F4FF6
:102770004F4F5F4F089590958095709561957F4F6D
:102780008F4F9F4F08950E942F14A59F900DB49FC7
:10279000900DA49F800D911D11240895B7FF0C94F6
:1027A000C3130E94C313821B930B08952F923F9271
:1027B0004F925F926F927F928F929F92AF92BF9251
:1027C000CF92DF92EF92FF920F931F93CF93DF93FD
:1027D000CDB7DEB7CA1BDB0B0FB6F894DEBF0FBE5A
:1027E000CDBF09942A88398848885F846E847D84A7
:1027F0008C849B84AA84B984C884DF80EE80FD80A9
:102800000C811B81AA81B981CE0FD11D0FB6F8941E
:10281000DEBF0FBECDBFED010895A1E21A2EAA1BA7
:10282000BB1BFD010DC0AA1FBB1FEE1FFF1FA21780
:10283000B307E407F50720F0A21BB30BE40BF50B7D
:10284000661F771F881F991F1A9469F76095709506
:10285000809590959B01AC01BD01CF010895A29F89
:10286000B001B39FC001A39F700D811D1124911D64
:10287000B29F700D811D1124911D0895991B79E05F
:1028800004C0991F961708F0961B881F7A95C9F700
:102890008095089597FB072E16F4009407D077FDD6
:1028A00009D00E945E1407FC05D03EF490958195F6
:1028B0009F4F0895709561957F4F0895AA1BBB1B8C
:1028C00051E107C0AA1FBB1FA617B70710F0A61B30
:1028D000B70B881F991F5A95A9F780959095BC0151
:1028E000CD010895EE0FFF1F0590F491E02D09949E
:1028F0000F931F93CF93DF938230910510F482E002
:1029000090E0E091BB04F091BC0430E020E0B0E046
:10291000A0E0309799F42115310509F44AC0281B2D
:10292000390B24303105D8F58A819B8161157105F9
:1029300089F1FB0193838283FE0111C040815181A3
:102940000281138148175907E0F04817590799F495
:10295000109761F012960C93129713961C9332966F
:10296000CF01DF91CF911F910F9108950093BB0488
:102970001093BC04F4CF2115310551F042175307D1
:1029800038F0A901DB019A01BD01DF01F801C1CFD7
:10299000EF01F9CF9093BC048093BB04CDCFFE012F
:1029A000E20FF31F819391932250310939832883D9
:1029B000D7CF2091B9043091BA04232B41F4209150
:1029C0001A0130911B013093BA042093B90420916D
:1029D0001801309119012115310541F42DB73EB789
:1029E00040911C0150911D01241B350BE091B9044D
:1029F000F091BA04E217F307A0F42E1B3F0B28173F
:102A0000390778F0AC014E5F5F4F2417350748F067
:102A10004E0F5F1F5093BA044093B9048193919372
:102A20009FCFF0E0E0E09CCFCF93DF930097E9F0F9
:102A3000FC01329713821282A091BB04B091BC04B6
:102A4000ED0130E020E01097A1F420813181820F68
:102A5000931F2091B9043091BA042817390709F05F
:102A600061C0F093BA04E093B904DF91CF91089567
:102A7000EA01CE17DF07E8F54A815B819E01411527
:102A80005105B1F7E901FB83EA8349915991C40FDC
:102A9000D51FEC17FD0761F4808191810296840FA8
:102AA000951FE90199838883828193819B838A831F
:102AB000F0E0E0E012968D919C9113970097B9F5A4
:102AC0002D913C911197CD010296820F931F209179
:102AD000B9043091BA042817390739F6309751F5FF
:102AE0001092BC041092BB04B093BA04A093B90432
:102AF000BCCFD383C28340815181840F951FC817F7
:102B0000D90761F44E5F5F4F88819981480F591F43
:102B1000518340838A819B81938382832115310570
:102B200009F0B0CFF093BC04E093BB049ECFFD014D
:102B3000DC01C0CF13821282D7CFB0E0A0E0E3EA7D
:102B4000F5E10C94D8138C01009751F4CB010E944D
:102B500078148C01C801CDB7DEB7E0E10C94F41312
:102B6000FC01E60FF71F9C0122503109E217F30721
:102B700008F49DC0D901CD91DC911197C617D707F4
:102B800098F0C530D10530F3CE010497861797072A
:102B900008F3C61BD70B2297C193D1936D937C93F7
:102BA000CF010E941415D6CF5B01AC1ABD0A4C01AF
:102BB0008C0E9D1EA091BB04B091BC04512C412CE5
:102BC000F12CE12C109731F58091B9049091BA0461
:102BD0008815990509F05CC04616570608F058C0DC
:102BE0008091180190911901009741F48DB79EB71B
:102BF00040911C0150911D01841B950BE817F907AA
:102C000008F055C0F093BA04E093B904F901718358
:102C10006083A0CF8D919C91119712966C90129722
:102C200013967C901397A815B90559F56C0142E0ED
:102C3000C40ED11CCA14DB0420F1AC014A195B0993
:102C4000DA011296159780F0628273825183408375
:102C5000D9016D937C93E114F10471F0D7011396BF
:102C6000FC93EE93129776CF22968C0F9D1FF9015D
:102C700091838083F301EFCFF093BC04E093BB0416
:102C800069CF4816590608F42C017D01D3019ACF6B
:102C9000CB010E9478147C01009749F0AE01B80185
:102CA0000E945A16C8010E941415870153CF10E0E4
:102CB00000E050CFFB01DC0102C001900D924150B9
:102CC0005040D8F70895FB01DC018D9101908019E7
:102CD0000110D9F3990B0895FB01DC0101900D92CD
:102CE0000020E1F7089510E0C3E6D0E004C0FE0143
:102CF0000E9472142196C436D107C9F7F894FFCF09
:102D0000B106B106FF0B0C0D0A0908073132333446
:102D100035363738392A30230000BD0480000000E2
:102D200000003E029E01CB018B02FC01DA01EE01A4
:102D300000000000CB069E016007CA0627073F0778
:102D4000B20600000000DC089E0160079D01000043
:102D500000009A032E03FD0253656E64696E6720BE
:102D6000534D532E2E2E000D0A0041542B434D4738
:102D7000463D310D0041542B434D47533D222B39E5
:102D800034373130393431313939220D00736563CC
:102D9000757269747920616C6572742120736F6D2E
:102DA00065206F6E6520697320747279696E672083
:102DB000746F20756E6C6F636B210054657874209E
:102DC00053656E742E007365636F6E647300547286
:102DD0007920616761696E20696E2000233030318F
:102DE0000023303032002330303300427574746F6A
:102DF0006E207072657373656400646F6F72207506
:102E00006E6C6F636B65640057656C636F6D6521F5
:102E1000002020456E74657220796F7572204944D8
:102E20000020496E636F727265637420494421000B
:102E300020456E74657220494420616761696E00A7
:102E40007072657373202A20746F20636F6E6669D9
:102E5000726D0020456E7465722070617373776FB8
:102E60007264002A00313435323738003335343655
:102E700039310037383935343100202041636365FA
:102E80007373206772616E74656421002020444F63
:102E90004F5220554E4C4F434B4544002020444F49
:102EA0004F52204C4F434B45440020496E636F7294
:102EB000726563742050617373776F7264210020B0
:0E2EC000496E636F727265637420496421006D
:00000001FF
